S01200007461736B352D6D61696E2E7372656358
S1130000B2C00000D1C00000CFC00000CDC00000CD
S1130010CBC00000C9C00000C7C00000C5C00000BC
S1130020C3C00000C1C00000BFC00000BDC00000CC
S1130030BBC00000B9C00000B7C00000B5C00000DC
S1130040B3C00000B1C00000AFC00000ADC00000EC
S1130050ABC00000A9C00000A7C00000A5C00000FC
S1130060A3C00000A1C000009FC000009DC000000C
S11300709BC0000099C0000097C0000095C000001C
S113008093C0000091C000008FC000008DC000002C
S11300908BC0000089C0000087C0000085C000003C
S11300A083C0000081C000007FC000007DC000004C
S11300B07BC0000079C0000077C0000075C000005C
S11300C073C0000071C000006FC000006DC000006C
S11300D06BC0000069C0000067C0000065C000007C
S11300E063C0000007634236B79BD8A71A39685625
S11300F018AEBAAB558C1D3CB7CC5763BD6DEDFD46
S1130100753EF6177231BF000000803F0800000002
S1130110BE922449123EABAAAA2ABECDCCCC4C3EF8
S113012000000080BEABAAAAAA3E00000000BF00E7
S11301300000803F0000000000084178D3BB4387E3
S1130140D1133D190E3CC3BD4282AD2B3E68EC82F7
S113015076BED98FE1A93E4C80EFFFBE01C4FF7F7C
S11301603F000000000011241FBECFEFD1E2DEBF2C
S1130170CDBF00E00CBF12E0A0E0B2E0EAE9F1E399
S113018000E00BBF02C007900D92A634B107D9F767
S11301902AE0A6E4B2E001C01D92A533B207E1F75C
S11301A00E94AC120C94CB182BCF87B1876F87B900
S11301B088B1887088B9089586E69EE00197F1F7C2
S11301C000004098419880E388B9429A8FEF97E401
S11301D00197F1F700C00000429886E69EE001977F
S11301E0F1F700004098419880E388B9429A8FEF74
S11301F097E40197F1F700C00000429886E69EE07C
S11302000197F1F700004098419880E388B9429A39
S11302108FEF97E40197F1F700C00000429886E65B
S11302209EE00197F1F700004098419880E288B978
S1130230429A8FEF97E40197F1F700C000004298CB
S1130240089598B19F7098B998B1282F207F922B68
S113025098B940984198429AEFEFF7E43197F1F753
S113026000C00000429898B19F7098B998B18295E7
S1130270807F892B88B940984198429A8FEF97E400
S11302800197F1F700C000004298089595DF86E6D3
S11302909EE00197F1F7000088E2D3DF81E0D1DF2F
S11302A086E0CFDF8EE0CDDF80E8CBCF089598B134
S11302B09F7098B998B1282F207F922B98B9409AB3
S11302C04198429AEFEFF7E43197F1F700C000004C
S11302D0429898B19F7098B998B18295807F892B84
S11302E088B9409A4198429A8FEF97E40197F1F7C1
S11302F000C000004298089580E8A3CF089582309A
S113030069F018F4813031F00895833059F0843065
S113031069F008958FE7860F94CF08958FEB860FC9
S113032090CF089583E9860F8CCF089583ED860FCF
S113033088CF08950F931F93CF93DF938A01E90128
S1130340882311F0611102C0D7DF01C0D8DFC530A6
S1130350D10509F0D5C09801329522952F70232735
S11303603F702327A7E4B3E00E941716969587955C
S11303709695879596958795C0969093230A809332
S1130380220A95DF98013695279536952795369557
S11303902795A5ECB0E20E941716AC015295429540
S11303A04F7045275F7045275093250A4093240AD0
S11303B09A01ADECBCEC0E9417169695879596951C
S11303C08795969587959C01220F331F880F991F57
S11303D0880F991F880F991F820F931F481B590B71
S11303E0CA01C09690932E0A80932D0A60DF04C040
S11303F0C330D10509F089C0980136952795369503
S11304002795ABE7B4E10E941716AC0156954795C2
S11304105093250A4093240A9A01ADECBCEC0E9447
S113042017169695879596958795969587959C0129
S1130430220F331F880F991F880F991F880F991F48
S1130440820F931F481B590BCA01C09690932A0A26
S11304508093290A2CDF9801ADECBCEC0E9417169E
S1130460AC015695479556954795569547955093A3
S1130470250A4093240A9A010E9417169695879597
S113048096958795969587959C01220F331F880F23
S1130490991F880F991F880F991F820F931F481B5C
S11304A0590BCA01C0969093280A8093270AFFDE4D
S11304B003C0C130D105F9F49801ADECBCEC0E9445
S11304C017169695879596958795969587959C0189
S11304D0220F331F880F991F880F991F880F991FA8
S11304E0820F931F081B190BC801C09690932C0A06
S11304F080932B0ADCDE269764F085E4D8DE09C0FD
S1130500C430D10509F074CF3DCFC230D10589F68E
S1130510A2CFDF91CF911F910F91089510BA11BA14
S113052010920701109208010895EAE7F0E01082A2
S113053010927B0080E280937C0080E880BF86E894
S113054080830895883018F098E090937B0087703A
S1130550806280937C00EAE7F0E08081806480839D
S1130560808184FFFDCF80917900EAE7F0E09081FB
S11305709061908310927B000895682F70E080E072
S113058090E00E94C1132FEE39EC43E95FE30E942F
S1130590B2149B01AC0160E070E080E89FE30E942C
S11305A028132AE939EF4EE255E40E944F1420E063
S11305B030E040E251E40E944F140E949013CB01BA
S11305C0613223E0720710F080E293E00895CF9344
S11305D0DF93C82FD62F842FB5DF8093260A482FA8
S11305E050E023E030E06D2F8C2FA4DEDF91CF911B
S11305F0089581B18F6081B982B1807F82B9EAE0C8
S1130600F1E0808188618083EBE0F1E080818861A2
S11306108083089592B1907F8F70982B92B908953A
S1130620E1E2F1E010828FEF8093250191E0909355
S11306302401109229018093280110922B018093A8
S11306402A0110922D0180932C0189EA80932001C4
S11306508BE08083089580914C0290914D02892B08
S113066031F48AEF8093280180932A0105C084EB3A
S11306708093280180932A0186E0CCCF089584E6F4
S11306808093280180932A0189E0C4CF089585E0EE
S1130690C1CF08958AE0BECF0895109228018AEF51
S11306A080932A0184E0B6CF08958AEF80932801CD
S11306B010922A0182E0AECF089510922801109280
S11306C02A0180E0A7CF08958091500290915102B1
S11306D0009711F4C0CF08958F3F2FEF920711F4C4
S11306E0D6CF0895019709F4D5CF0895D0DF01C07E
S11306F0CEDF82E027DF90E020914002309141027A
S113070082179307A9F301C0C2DF83E01BDF90E0E7
S1130710209140023091410282179307A9F7BDDF6F
S11307202FEF8FE794E0215080409040E1F700C024
S113073000000895AFDF01C0ADDF82E003DF90E089
S1130740209140023091410282179307A9F301C01E
S1130750A1DF81E0F7DE90E0209140023091410278
S113076082179307A9F7A1DF2FEF8FE794E02150B9
S113077080409040E1F700C000000895BF92CF92FE
S1130780DF92EF92FF920F931F93CF93DF9363DF78
S11307902FEF8FEF9CE2215080409040E1F700C0A2
S11307A0000084E68093280180932A010F2EF8E24A
S11307B0CF2EDD24D394F02D0F2EF6EEBF2EF02D88
S11307C00F2EFAE2EF2EFF24F394F02D30C089E0CF
S11307D0B9DED3DE8C018AE0B5DECFDEEC0123E0A6
S11307E030E0AC0161E081E0A5DD23E030E0A80168
S11307F069E081E09FDDC936D1052CF00036110592
S113080014F44BDF10C00E3611052CF0C036D105A0
S113081014F44BDF08C01FDFE6E6F6EE20E0E150FB
S1130820F0402040E1F7F601B082F701B08281E0A8
S113083089DE90E0209140023091410282179307B3
S1130840ACF482E07FDE90E02091400230914102DE
S1130850821793075CF483E075DE90E020914002F8
S113086030914102821793070CF4B1CF10924F02DA
S113087010924E02DF91CF911F910F91FF90EF9054
S1130880DF90CF90BF90089541E061E081E09FDE6A
S113089042E065E081E09BDE43E069E081E097DED1
S11308A082E050DE90E0209140023091410228170E
S11308B0390724F4109251021092500283E042DE70
S11308C090E020914002309141022817390764F4E6
S11308D08FEF9FEF909351028093500281E090E05C
S11308E0909349028093480281E02CDE90E02091AD
S11308F04002309141022817390764F481E090E006
S113090090935102809350028FEF9FEF909349028E
S11309108093480283E016DE90E0209140023091FB
S11309204102821793070CF045C082E00BDE90E091
S11309302091400230914102821793070CF03AC093
S113094081E000DE90E02091400230914102821764
S1130950930784F580914E0290914F021816190660
S11309606CF489E0EFDD09DE883C910538F489E018
S1130970E9DD03DE883C910508F400DF80914A023A
S113098090914B0218161906ACF48091480290918C
S11309904902009779F0019639F481E090E0909350
S11309A051028093500206C08FEF9FEF9093510243
S11309B08093500283E0C6DD90E0209140023091A4
S11309C0410228173907C4F482E0BCDD90E020918D
S11309D04002309141022817390774F481E0B2DDF6
S11309E090E020914002309141022817390724F405
S11309F01092510210925002089546DF65CE089578
S1130A000F931F93CF93DF93082F25DE26E686EE00
S1130A1090E0215080409040E1F7C0E0D0E010E049
S1130A204BC0EBDF83E08EDD90E0209140023091FB
S1130A304102281739070CF03FC082E083DD90E0C3
S1130A40209140023091410228173907ACF581E02A
S1130A5079DD282F30E08091400290914102821785
S1130A60930754F501C0F7DD83E06CDD90E020913D
S1130A7040023091410228173907A4F482E062DD74
S1130A8090E020914002309141022817390754F434
S1130A9081E058DD90E02091400230914102281716
S1130AA039070CF32FEF8FEB96E0215080409040F4
S1130AB0E1F700C0000021960C171D0709F0B1CF23
S1130AC0CADD8FEF9FE80197F1F700C00000DF91C6
S1130AD0CF911F910F91089580914E0290914F02F2
S1130AE0019690934F0280934E0281E089CF08953E
S1130AF0CF93DF93B0DD8FEF9FE80197F1F700C04C
S1130B000000C8DD9FEF2FE784E091502040804033
S1130B10E1F700C0000001C0BDDD82E013DD90E01C
S1130B20209140023091410228173907ACF3C0E00C
S1130B30D0E002C0AFDD219682E004DD90E0209198
S1130B4040023091410282179307A4F3CE31D105BC
S1130B508CF3DF91CF91089581E090E090934D0262
S1130B6080934C02EFDC90E02091400230914102EE
S1130B7082179307BCF082E0E5DC90E0209140020C
S1130B8030914102821793076CF401C086DD82E044
S1130B90D9DC90E020914002309141028217930702
S1130BA0ACF322C083E0CEDC90E02091400230918F
S1130BB0410282179307BCF082E0C4DC90E02091EC
S1130BC0400230914102821793076CF401C06DDD3D
S1130BD082E0B8DC90E0209140023091410282171B
S1130BE09307ACF301C037DD10924D0210924C0212
S1130BF00895CF93DF93EC0186E9809328018093D5
S1130C002A0129DD29E989E591E0215080409040BD
S1130C10E1F70000209761F0F0DE29E989E591E031
S1130C20215080409040E1F7000021972097A1F7E0
S1130C3044DD8FEF8093280180932A01DF91CF91C7
S1130C40089580914A0290914B02019690934B0231
S1130C5080934A0281E0D4DE80914A0290914B0253
S1130C60019790934B0280934A0208953B9A4398CC
S1130C70089586B1886088B9089586B1877F88B958
S1130C800895E1E8F0E010828CEF8093850081E024
S1130C908093840093E0909389008FEF8093880081
S1130CA090938B0080938A0090938D0080938C00A6
S1130CB090938700809386008BEA80938000109243
S1130CC082008CE080830895259A2D9A0895269AAF
S1130CD02E9A0895279A2F9A0895239A2B9A089565
S1130CE0F3DFF5DFF7DFF9CF089510928B0088E585
S1130CF080938A002FEF8FE796E121508040904047
S1130D00E1F700C00000109289008DE28093880012
S1130D10089510928D008EE580938C002FEF8FEF55
S1130D2093E2215080409040E1F700C0000010920F
S1130D30890083E880938800089510928B0083E2F1
S1130D4080938A002FEF8FEF99E5215080409040E7
S1130D50E1F700C000001092890083E580938800C9
S1130D60089510928D0083E280938C002FEF8FEF13
S1130D7099E5215080409040E1F700C000001092B6
S1130D80890083E58093880008951092890083E5A3
S1130D908093880010928B0083E280938A001092E3
S1130DA08D0080938C000895109289008DE38093C8
S1130DB088002FEF8FE796E1215080409040E1F7C3
S1130DC000C0000010928B008EE580938A002FEF04
S1130DD08FE796E1215080409040E1F700C0000089
S1130DE04EDC26E686E695E0215080409040E1F70F
S1130DF064DC10928D0083E780938C002FEF8FEFDB
S1130E009CE2215080409040E1F700C00000BDDF2B
S1130E102FEF8FE796E1215080409040E1F700C02A
S1130E2000000895109289008DE3809388002FEFCD
S1130E308FE796E1215080409040E1F700C0000028
S1130E4010928B008EE580938A002FEF8FEF9CE247
S1130E50215080409040E1F700C0000096CF0895F3
S1130E60109289008DE3809388002FEF8FE796E13D
S1130E70215080409040E1F700C0000010928D00A6
S1130E8083E780938C002FEF8FEF9CE2215080400A
S1130E909040E1F700C0000078CF089510928900D7
S1130EA086E5809388002FEF8FE796E121508040FC
S1130EB09040E1F700C0000010928B008EE5809313
S1130EC08A002FEF8FEF9CE2215080409040E1F7A1
S1130ED000C000005ACF08951092890086E58093DF
S1130EE088002FEF8FE796E1215080409040E1F792
S1130EF000C0000010928D008EE580938C002FEFCF
S1130F008FEF9CE2215080409040E1F700C0000048
S1130F103CCF089521DE9FDB1FDE83E090E069DE95
S1130F20AEDB2CEC8CEC91E0215080409040E1F75A
S1130F3000C0C3DBDADE2FEF8FE796E1215080405B
S1130F409040E1F700C0000007DE8AEF809328019B
S1130F5080932A0180DB29E989E198E021508040CF
S1130F609040E1F70000A9DB10924D0210924C0270
S1130F70E4DE2FEF8FEF9CE2215080409040E1F7B8
S1130F8000C0000068DB2FEF8FE392E02150804027
S1130F909040E1F700C000000895DEDD8FE090E0AE
S1130FA028DE8BDBA5DD6BDB2FEF8FE392E0215096
S1130FB080409040E1F700C00000CEDDCDDDCCDD07
S1130FC0CBDDCADD81E090E014DE59DB2CEC8CEC47
S1130FD091E0215080409040E1F700C06EDB99DE43
S1130FE02FEF8FEF9CE2215080409040E1F700C04A
S1130FF0000045DB29E989E993E0215080409040D5
S1131000E1F700005ADBADDE2FEF8FEF9CE22150B9
S113101080409040E1F700C00000089582E092DA39
S113102090E020914002309141028217930724F40A
S1131030109251021092500283E084DA90E02091E1
S11310404002309141028217930734F48FEF9FEFEF
S1131050909351028093500281E074DA90E02091E1
S11310604002309141028217930734F481E090E00A
S11310709093510280935002089509DB2FEF8FE380
S113108092E0215080409040E1F700C0000001C090
S1131090FEDA82E057DA90E020914002309141027A
S11310A082179307ACF301C0F2DA81E04BDA90E0E7
S11310B0209140023091410228173907ACF308957A
S11310C0E9DA2FEF8FE392E0215080409040E1F77E
S11310D000C0000001C0DEDA82E034DA90E0209142
S11310E040023091410282179307ACF301C0D2DA77
S11310F083E028DA90E020914002309141022817E1
S11311003907ACF3D2DA2FEF8FE794E02150804017
S11311109040E1F700C00000089580915002909142
S11311205102009711F497CA08958130910541F452
S113113086E9809328018AEF80932A01A8CA08953A
S11311408F3F2FEF920741F48AEF8093280186E9BD
S113115080932A019FCA0895029709F4AECA08959C
S11311605DDFDBCF08950F931F93CF93DF938C0143
S113117072DA26E686EE90E0215080409040E1F756
S1131180C0E0D0E04EC0ECDF82E0DCD9482F50E074
S11311902091400230914102241735070CF050C0D1
S11311A081E0D0D990E02091400230914102821731
S11311B093070CF045C083E0C5D990E0209140022C
S11311C030914102821793070CF03AC081E018DC99
S11311D02CC081E0B7D990E02091400230914102C7
S11311E082179307B4F083E0ADD9282F30E08091C3
S11311F0400290914102281739079CF482E0A2D959
S1131200282F30E08091400290914102281739073D
S113121044F421DA8FEF9FE80197F1F700C0000052
S11312202196C017D1070CF4AECF15DA9FEF2FE348
S11312308BE0915020408040E1F700C000000DC0D9
S113124082E080D9282F30E08091400290914102C1
S1131250281739070CF097CFBCCFDF91CF911F919E
S11312600F9108950ADF81E090E07DCF089528DF93
S113127081E090E078CF089541E061E081E0A7D972
S113128042E065E081E0A3D943E069E081E09FD9D1
S113129081E058D990E02091400230914102281712
S11312A03907B4F482E04ED990E0209140023091A5
S11312B041028217930764F483E044D990E02091BB
S11312C04002309141022817390714F4F6C90895F1
S11312D081E038D990E020914002309141022817F2
S11312E03907B4F482E02ED990E020914002309185
S11312F041022817390764F483E024D990E020914F
S11313004002309141028217930714F4D6C908951C
S113131081E018D990E02091400230914102821777
S11313209307B4F482E00ED990E02091400230910A
S113133041022817390764F483E004D990E020912E
S11313404002309141022817390714F4B6C90895B0
S113135082D902DC91CF91DE8FDF81E090E003DF60
S1131360AFDE8DD92CEC8CEC91E021508040904084
S1131370E1F700C0A2D918CD0895A2DE7DDF81E097
S113138090E0F1DE9DDE7BD92CEC8CEC91E02150D9
S113139080409040E1F700C090D906CD08950E94A6
S11313A0D500BCD826C90895F894F9DFBED838D939
S11313B068DC96DC5BDC789408952F923F924F9220
S11313C05F926F927F928F929F92AF92BF92CF92D1
S11313D0DF92EF92FF920F931F93CF93DF93CDB7DA
S11313E0DEB7C259D1090FB6F894DEBF0FBECDBF28
S11313F03C01C157DF4F59834883CF58D040FE0189
S1131400E95BFF4F86E4DF011D928A95E9F7AE019F
S11314104D5F5F4F9F01FA0183E690E081939193C2
S1131420E217F307D9F7CB01880F991FE7E4F0E03F
S1131430EC0FFD1FE80FF91F21E030E0318320831A
S1131440FE01E80FF91F12821182C157DF4FE881B4
S1131450F981CF58D040EE0FFF1F27E430E02C0F66
S11314603D1FE20FF31F80819181892B09F092C007
S1131470290132E0430E511CC357DF4F4883CD5836
S1131480D040C257DF4F5883CE58D040992493940C
S1131490812C1F0152C0D8014D915D918D01D6015F
S11314A02D913C91420F531F9F016081718146171A
S11314B0570764F4CF56DF4FA881B981C159D04092
S11314C06D917C91672B11F451834083D9012D9147
S11314D03C9132962E153F0564F4CF56DF4FA88118
S11314E0B981C159D0404D915C91452B11F47901DA
S11314F05C010196CF56DF4F28813981C159D04014
S11315002E5F3F4FCF56DF4F39832883C159D040D8
S11315108332910509F0BFCFF501EE0FFF1F87E479
S113152090E08C0F9D1FE80FF91F90828182D101FA
S11315308D919C91892B71F5B501B6E4B69F80011C
S1131540B79F100D1124060D171D0E5F1F4FC357B3
S1131550DF4FE881CD58D040C257DF4FF881CE58D5
S1131560D0400F2EF3E6EF2EF02DF12CA12CB12C50
S1131570892D982D6B01CC0CDD1C21E030E02C0F63
S11315803D1FC20ED31ECF56DF4F59824882C15928
S1131590D04081CFC157DF4FE881F981CF58D04087
S11315A0EE0FFF1FEC0FFD1F81819281CE56DF4F9E
S11315B00FB6F894DEBF0FBECDBFDF91CF911F9160
S11315C00F91FF90EF90DF90CF90BF90AF909F90DE
S11315D08F907F906F905F904F903F902F900895E1
S11315E0AF92BF92CF92DF92EF92FF920F931F932D
S11315F0CF93DF938C017B016F3F2FEF720709F4C8
S1131600A2C26B01CC0CDD1CEC01CC0DDD1D88816C
S113161099810297A1F48A819B818130910519F403
S113162081E0EED90CC08430910521F483D881E0A7
S1131630E7D905C0039729F559D881E0E1D9888114
S11316409981039769F4F801EC0DFD1D8281938162
S1131650029721F46FD881E0D3D902C081E0D0D9B8
S113166088819981049769F4F801EC0DFD1D82814C
S11316709381029721F43AD881E0C2D902C081E073
S1131680BFD9888199819C01277F25503109223057
S1131690310518F00997029710F481E0B1D98881D7
S11316A099818C31910589F09C012D7F2831310578
S11316B061F08331910549F09C012E5131092330A9
S11316C0310518F0459709F0CEC0560184E0A80E04
S11316D0B11CA00EB11EF501808191819C012A509C
S11316E031092330310548F02450310923303105C4
S11316F020F00797029708F053C00E947603888170
S113170099819C012F51310922303105C0F5FC012A
S1131710EE0FFF1FEE0FFF1FE050FE4F80819181FF
S113172081309105B1F48091160290911702892BB2
S113173041F4B4DB81E090E09093170280931602A9
S11317402FC0CADB81E090E09093150280931402CD
S113175027C0892B29F580911602909117020197D1
S113176041F460DB81E090E09093170280931602CD
S113177017C076DB109215021092140211C08091EA
S1131780160290911702019731F4C4DB10921702EC
S11317901092160205C001DC109215021092140278
S11317A0F501808191819C01265031092330310556
S11317B048F0245031092330310520F00397029773
S11317C008F051C00E949A03888199819C012F518D
S11317D0310922303105B0F5FC01EE0FFF1FEE0F89
S11317E0FF1FE050FE4F8081918181309105B1F45B
S11317F08091160290911702892B41F44FDB81E00E
S113180090E090931702809316022DC065DB81E06F
S113181090E0909315028093140225C0892B19F54A
S11318208091160290911702019731F4FBDA10921D
S113183017021092160217C013DB109215021092B1
S1131840140211C08091160290911702019731F48D
S113185061DB109217021092160205C09EDB1092F3
S1131860150210921402888199818431910591F0B6
S11318708D31910579F09C012D7F2931310551F08D
S11318809C01215231092230310520F046970297FC
S113189008F0D4C05601F4E0AF0EB11CA00EB11E86
S11318A0F50180819181AC019C012F5031092230D6
S11318B0310558F02C5F3F4F2330310530F047504D
S11318C051094330510508F03FC10E949A038881B1
S11318D099819C012152310922303105B0F5FC0176
S11318E0EE0FFF1FEE0FFF1FE050FE4F808191812E
S11318F081309105B1F48091160290911702892BE1
S113190041F4CCDA81E090E09093170280931602C0
S11319102DC0E2DA81E090E09093150280931402E6
S113192025C0892B19F58091160290911702019711
S113193031F478DA109217021092160217C090DA76
S1131940109215021092140211C080911602909107
S11319501702019731F4DEDA109217021092160280
S113196005C01BDB1092150210921402F501808150
S113197091819C01277F2430310579F088309105CD
S113198061F09C012B7F2330310539F085309105BE
S113199021F08D7F099709F051C00E947603888158
S11319A099819C012152310922303105B0F5FC01A5
S11319B0EE0FFF1FEE0FFF1FE050FE4F808191815D
S11319C081309105B1F48091160290911702892B10
S11319D041F464DA81E090E0909317028093160258
S11319E02DC07ADA81E090E090931502809314027E
S11319F025C0892B19F58091160290911702019741
S1131A0031F410DA109217021092160217C028DA75
S1131A10109215021092140211C080911602909136
S1131A201702019731F476DA109217021092160217
S1131A3005C0B3DA109215021092140288819981BC
S1131A408830910581F0F7E0EF16F10419F4E2E033
S1131A50F0E002C0E0E0F0E0E00FF11F208131810E
S1131A60232B49F416C0F801EC0DFD1D82819381EE
S1131A70079761F409C0079749F4F801EC0DFD1DBF
S1131A8082819381089711F427D803C081E00E94D2
S1131A900005888199819C012B5031092230310540
S1131AA0C8F48C30910541F4F801EC0DFD1D8281E0
S1131AB093810B9761F409C00B9749F4F801EC0D7D
S1131AC0FD1D828193810C9711F4BBD803C081E082
S1131AD00E940005888199819C012F503109223090
S1131AE03105A8F4C00ED11EF6013497208131814E
S1131AF02231310549F40F9711F42DDC01C03DDC8E
S1131B0022E0E21AF10803C081E00E940005C70147
S1131B10880F991FF801E80FF91F208131812231C4
S1131B20310559F43497808191810F9711F49FDB2B
S1131B3001C098DB82E0E81AF108B701615071092D
S1131B40C8014EDD06C005C08430910509F019CFE7
S1131B5024CFDF91CF911F910F91FF90EF90DF90F1
S1131B60CF90BF90AF9008952F923F924F925F9283
S1131B706F927F928F929F92AF92BF92CF92DF9299
S1131B80EF92FF920F931F93CF93DF93CDB7DEB7FE
S1131B90CC5DD1090FB6F894DEBF0FBECDBF1C01DA
S1131BA03B012A01FE01E357FF4F86E4DF011D924A
S1131BB08A95E9F7BE016D5F7F4FAE01495B5F4FC8
S1131BC08A010E5F1F4FD801FB0123E630E08FEF3F
S1131BD09FEF219331938D939D93E417F507C9F7F4
S1131BE0C301880F991FEDE8F0E0EC0FFD1FE80F2B
S1131BF0F91F21E030E031832083FE01E80FF91F53
S1131C0012821182F201EE0FFF1F4DE850E04C0FDB
S1131C105D1FE40FF51F80819181892B09F0BFC0FE
S1131C209A012E5F3F4FCB52DF4F0883C55DD040F2
S1131C30CA52DF4F1883C65DD040C952DF4F688354
S1131C40C75DD040C852DF4F7883C85DD040CD52C5
S1131C50DF4FF983E883C35DD040C752DF4F598219
S1131C604882C95DD04029015DC0D8016D917D9144
S1131C708D01D6014D915C91640F751FAF01E08019
S1131C80F1806E157F057CF4C552DF4FA881B981C0
S1131C90CB5DD040ED90FC90EF2829F471836083F4
S1131CA0D9016D927C92DA014D915C9132964A157C
S1131CB05B0564F4C552DF4FA881B981CB5DD04088
S1131CC06D917C91672B11F45A014C010196C55218
S1131CD0DF4F48815981CB5DD0404E5F5F4FC55285
S1131CE0DF4F59834883CB5DD0402E5F3F4F833213
S1131CF0910509F0BACFF401EE0FFF1F8DE890E0D3
S1131D008C0F9D1FE80FF91F91E090831182CD5233
S1131D10DF4FA881B981C35DD0408D919C91892BFF
S1131D20C1F53401B6E4B69D8001B79D100D1124B0
S1131D30020D131D0E5F1F4FCB52DF4F2881C55D6F
S1131D40D040CA52DF4F3881C65DD040C952DF4F00
S1131D50E881C75DD040C852DF4FF881C85DD040EC
S1131D600F2EF3E6AF2EF02DB12C812C912C81E0B7
S1131D7090E06301CC0CDD1C41E050E04C0F5D1F92
S1131D80C40ED51EC552DF4F59824882CB5DD04068
S1131D906CCFC752DF4F48805980C95DD0405FEF98
S1131DA04516550619F12091460230914702C901A2
S1131DB00196F901EE0FFF1FEE5AFD4F382F292F20
S1131DC041925192D201AA0FBB1F47E450E04C0F3D
S1131DD05D1FA40FB51F4D905C9001965FEF4516F3
S1131DE0550661F7309346022093470280914602DC
S1131DF0909147027C01A1E0EA1AF108FF2004F166
S1131E008C01000F111F0E5A1D4F0F2EF2E4CF2E1E
S1131E10F2E0DF2EF02D02501109F80181818F9339
S1131E2080818F93DF92CF9211D7F1E0EF1AF108FE
S1131E300F900F900F900F902FEFE216F20659F7C4
S1131E4060914602709147026150710982E592E007
S1131E50C7DB1092470210924602C452DF4F0FB6FE
S1131E60F894DEBF0FBECDBFDF91CF911F910F91CC
S1131E70FF90EF90DF90CF90BF90AF909F908F90A6
S1131E807F906F905F904F903F902F9008952F9286
S1131E903F924F925F926F927F928F929F92AF92F6
S1131EA0BF92CF92DF92EF92FF920F931F93CF9343
S1131EB0DF93CDB7DEB7CC59D9400FB6F894DEBF67
S1131EC00FBECDBFAE01475B5F4FBE016B56764F71
S1131ED023E630E00AC02193319301970097D9F7A4
S1131EE04A5B5F4F4617570721F0FA0182E290E000
S1131EF0F2CF81E090E0C157DF4F99838883CF58B8
S1131F00D0402D969FAF8EAF2D97C952DF4F998346
S1131F108883C75DD040CD56DF4F99838883C359EA
S1131F20D040C35EDE4F99838883CD51D140CB56D8
S1131F30DF4F99838883C559D040C355DE4F9983B9
S1131F408883CD5AD140CB5DDE4F99838883C552B7
S1131F50D140CB54D84F99838883C55BD740C352B3
S1131F60DE4F99838883CD5DD140C159D84F998381
S1131F708883CF56D740C552DE4F99838883CB5D83
S1131F80D140C35CDD4F99838883CD53D240CB5479
S1131F90DE4F99838883C55BD140CF52D74F998355
S1131FA08883C15DD840CF58DD4F99838883C1575A
S1131FB0D240C550DE4F99838883CB5FD140C15C4A
S1131FC0DD4F99838883CF53D240C353DD4F998328
S1131FD08883CD5CD240CB5BDD4F99838883C55425
S1131FE0D240CB55D94F99838883C55AD640C35123
S1131FF0DD4F99838883CD5ED240C15AD94F9983EE
S11320008883CF55D640C551DD4F99838883CB5EF5
S1132010D240C35ADC4F99838883CD55D340CB52E9
S1132020DD4F99838883C55DD240CD56D74F9983C0
S11320308883C359D840C957DC4F99838883C758CC
S1132040D340C55EDC4F99838883CB51D340C15ABA
S1132050DC4F99838883CF55D340C351DC4F998398
S11320608883CD5ED340CB59DC4F99838883C55692
S1132070D340C15BDA4F99838883CF54D540C55090
S1132080DC4F99838883CB5FD340CB56DA4F998357
S11320908883C559D540C350DC4F99838883CD5F6D
S11320A0D340C95CDB4F99838883C753D440CD5058
S11320B0DC4F99838883C35FD340CB53DB4F998331
S11320C08883C55CD440C35CDB4F99838883CD533C
S11320D0D440C15FDA4F99838883CF50D540C5532C
S11320E0DB4F99838883CB5CD440CD57DB4F9983F6
S11320F08883C358D440C953DB4F99838883C75C12
S1132100D440C155DC4F99838883CF5AD340C558F6
S1132110DB4F99838883CB57D440C752DA4F9983D6
S11321208883C95DD540C754DC4F99838883C95BD4
S1132130D340C15ED94F99838883CF51D640C554CB
S1132140DC4F99838883CB5BD340C35EDC4F998398
S11321508883CD51D340CB55DC4F99838883C55AAE
S1132160D340C35ED64F99838883CD51D940CB5B8E
S1132170DC4F99838883C554D340C357DD4F99837B
S11321808883CD58D240CB5EDC4F99838883C55178
S1132190D340C15DD84F99838883CF52D740C5556A
S11321A0DD4F99838883CB5AD240C751D94F998345
S11321B08883C95ED640C755DD4F99838883C95A41
S11321C0D240C350DE4F99838883CD5FD140CB5733
S11321D0DD4F99838883C558D240C55AD64F998319
S11321E08883CB55D940C15DDD4F99838883CF5215
S11321F0D240C359DE4F99838883CD56D140CB500A
S1132200DE4F99838883C55FD140C750D84F9983E7
S11322108883C95FD740C756DE4F99838883C959DD
S1132220D140C15CD74F99838883CF53D840C556DA
S1132230DE4F99838883CB59D140C352DF4F9983B2
S11322408883CD5DD040CB59DE4F99838883C556B2
S1132250D140E12CF12CAA24A394B12C412C512C73
S11322600F2EF2E1CF2ED12CF02D08C0C50101961E
S11322708A3091050CF028C175015C01FC01EE0F58
S1132280FF1FE85EFD4F208131812231310521F5A8
S11322909C01220F331FD901A45DBD4F0D911C91E8
S11322A01197A701440F551FFA01E45DFD4F6081AA
S11322B071816D937C9311830083FA01E85EFD4F75
S11322C040815181D901A85EBD4F4D935C93D18269
S11322D0C0822FEF421A520A01968A30910574F295
S11322E0C5CF4114510419F522242394312CCB5623
S11322F0D64FC880D980C559D940C956D64F6880B1
S11323007980C759D94082010F2EF3E68F2EF02D24
S1132310912C5601C556D64F59824882CB59D94083
S1132320C756D64F48805980C959D9400EC0CB569C
S1132330D64FE881F981C559D94032972080318040
S11323403AE0431651049CF231C0D301ED90FD9064
S11323503D01A701622D732DCE0101962ED86C018B
S1132360F501419151915F01B701CE01019625D844
S11323708C0D9D1D8815990544F44C01CD56D64FFE
S113238019830883C359D94028010F5F1F4F0A30AE
S11323901105DCF2C756D64F59824882C959D94033
S11323A0C556D64F48805980CB59D940C756D64FC9
S11323B0E881F981C959D940EE0FFF1FE45DFD4F53
S11323C080819181C956D64FA881B981C759D94016
S11323D02D913C911197318320838D939D93C95600
S11323E0D64FB983A883C759D940CD56D64FE88173
S11323F0F981C359D940EE0FFF1FE85EFD4F80817C
S11324009181CB56D64FA881B981C559D9402D9118
S11324103C911197318320838D939D93CB56D64F56
S1132420B983A883C559D940BFEF4B1A5B0AEAE0C8
S11324304E16510409F055CF61C00115110541F440
S1132440D1014D915C9161E070E0CE0101968CDB8D
S1132450F201819091902F01D301ED90FD903D0107
S1132460A401B701CE0101960E94DD095C010F5F52
S11324701F4FF301C080D180A601B701CE010196A0
S11324800E94DD098A159B057CF4A601B701CE01E3
S113249001966ADBD2014D915C91F30160817181F7
S11324A0CE01019661DB3AC0A401B701CE010196C9
S11324B05BDBD3014D915C91F201329760817181B4
S11324C0CE01019651DB2AC0BAE04B165104B4F494
S11324D0C201880F991FFC01E45DFD4FC956D64F18
S11324E0F983E883C759D9409C01285E3D4FCB56F8
S11324F0D64F39832883C559D940F3CE0F2EF8E13E
S11325004F2EF2E05F2EF02D0F2EFCE26F2EF2E044
S11325107F2EF02D00E010E013018FCF0A3011055B
S113252009F08BCFC456D64F0FB6F894DEBF0FBE5A
S1132530CDBFDF91CF911F910F91FF90EF90DF906E
S1132540CF90BF90AF909F908F907F906F905F904F
S11325504F903F902F9008950E94D4090E94DC0070
S11325600E94460194DC0E9439062FEF8FEF90EE13
S1132570215080409040E1F700C000000E943D06D9
S113258080E090E008955058BB27AA270ED04DC193
S11325903ED130F043D120F031F49F3F11F41EF4CA
S11325A033C10EF4E095E7FB29C1E92F4FD180F345
S11325B0BA17620773078407950718F071F49EF53C
S11325C067C10EF4E0950B2EBA2FA02D0B01B901B3
S11325D090010C01CA01A0011124FF27591B99F095
S11325E0593F50F4503E68F11A16F040A22F232FA1
S11325F0342F4427585FF3CF469537952795A795F1
S1132600F0405395C9F77EF41F16BA0B620B730B97
S1132610840BBAF09150A1F0FF0FBB1F661F771F08
S1132620881FC2F70EC0BA0F621F731F841F48F4BD
S1132630879577956795B795F7959E3F08F0B3CF43
S11326409395880F08F09927EE0F9795879508952D
S11326500CD0EBC0E3D040F0DAD030F021F45F3F8F
S113266019F0CCC0511115C1CFC0F0D098F3992303
S1132670C9F35523B1F3951B550BBB27AA27621742
S11326807307840738F09F5F5F4F220F331F441F87
S1132690AA1FA9F333D00E2E3AF0E0E830D09150BF
S11326A05040E695001CCAF729D0FE2F27D0660FAC
S11326B0771F881FBB1F261737074807AB07B0E8EB
S11326C009F0BB0B802DBF01FF2793585F4F2AF001
S11326D09E3F510568F092C0DCC05F3FECF3983E2A
S11326E0DCF3869577956795B795F7959F5FC9F75E
S11326F0880F911D9695879597F90895E1E0660FE7
S1132700771F881FBB1F621773078407BA0720F05F
S1132710621B730B840BBA0BEE1F88F7E0950895C8
S113272004D06894B111B5C0089598D088F09F572B
S113273090F0B92F9927B751A0F0D1F0660F771F09
S1132740881F991F1AF0BA95C9F712C0B13081F0E9
S11327509FD0B1E008959CC0672F782F8827B85F79
S113276039F0B93FCCF3869577956795B395D9F74A
S11327703EF490958095709561957F4F8F4F9F4F54
S11327800895E89409C097FB3EF490958095709560
S113279061957F4F8F4F9F4F9923A9F0F92F96E9A9
S11327A0BB279395F695879577956795B795F1111E
S11327B0F8CFFAF4BB0F11F460FF1BC06F5F7F4FBB
S11327C08F4F9F4F16C0882311F096E911C07723CD
S11327D021F09EE8872F762F05C0662371F096E8D6
S11327E0862F70E060E02AF09A95660F771F881FA5
S11327F0DAF7880F9695879597F9089597F99F6763
S113280080E870E060E008959FEF80EC0895002474
S11328100A941616170618060906089500240A9441
S113282012161306140605060895092E0394000CC7
S113283011F4882352F0BB0F40F4BF2B11F460FF56
S113284004C06F5F7F4F8F4F9F4F089557FD90587F
S1132850440F551F59F05F3F71F04795880F97FB60
S1132860991F61F09F3F79F087950895121613061A
S11328701406551FF2CF4695F1DF08C01616170649
S11328801806991FF1CF869571056105089408957E
S1132890E894BB2766277727CB0197F908950BD0D7
S11328A0C4CFB5DF28F0BADF18F0952309F0A6CF1E
S11328B0ABCF1124EECFCADFA0F3959FD1F3950FD0
S11328C050E0551F629FF001729FBB27F00DB11DB0
S11328D0639FAA27F00DB11DAA1F649F6627B00D40
S11328E0A11D661F829F2227B00DA11D621F739F29
S11328F0B00DA11D621F839FA00D611D221F749F37
S11329003327A00D611D231F849F600D211D822F7D
S1132910762F6A2F11249F5750408AF0E1F08823C4
S11329204AF0EE0FFF1FBB1F661F771F881F9150D1
S11329305040A9F79E3F510570F060CFAACF5F3F8A
S1132940ECF3983EDCF3869577956795B795F79504
S1132950E7959F5FC1F7FE2B880F911D969587958C
S113296097F90895FA01EE0FFF1F309621053105FE
S113297099F16115710561F48038BFE39B0749F152
S113298068949038810561F08038BFEF9B0741F06F
S1132990992342F5FF3FE1053105210511F1E89442
S11329A00894E795D901AA2329F4AB2FBE2FF85F29
S11329B0D0F310C0FF5F70F4A695E0F7F73950F03C
S11329C019F0FF3A38F49F779F930CD00F9007FCCF
S11329D0905808953EF018CF60E070E080E89FE3DF
S11329E008954FE79F775F934F933F932F939ED024
S11329F02F913F914F915F9152DF05C019F40EF072
S1132A00FDCE46CF01CF2ADFC8F39638C0F707F8CA
S1132A100F92E8942BE33AEA48EB5FE74EDF0F921C
S1132A200F920F924DB75EB70F92C0D0E4EEF0E074
S1132A3016D04F915F91EF91FF91E595EE1FFF1F27
S1132A4049F0FE57E0684427EE0F441FFA95E1F77A
S1132A504195550B32D00F9007FE26C00895DF93A1
S1132A60CF931F930F93FF92EF92DF927B018C0120
S1132A70689405C0DA2EEF011EDFFE01E894A591EB
S1132A802591359145915591AEF3EF018EDDFE010F
S1132A909701A801DA9479F7DF90EF90FF900F91F6
S1132AA01F91CF91DF9108959B01AC0160E070E02C
S1132AB080E89FE3CDCDA2CEACC0D0DEE8F399236D
S1132AC0D9F3940F511DBBF39150504094F059F039
S1132AD0882332F0660F771F881F91505040C1F74A
S1132AE09E3F510544F7880F911D9695879597F958
S1132AF008955F3FACF0983E9CF0BB278695779590
S1132B006795B79508F4B1609395C1F7BB0F58F773
S1132B1011F460FFE8CF6F5F7F4F8F4F9F4FE3CF7C
S1132B20B8CE0EF076C070CE689468CE97DEC8F347
S1132B309923D1F3C6F3DF93CF931F930F93FF929F
S1132B40C92FDD2788232AF02197660F771F881F56
S1132B50DAF720E030E040E85FEB9FE3883920F0CB
S1132B60803E30F021968F770FDDECE0F1E003C07A
S1132B700BDDE9E3F1E073DF8B01BE01EC01FB2E19
S1132B806F5771097595771F880B990BFCDD28E148
S1132B9032E741E35FE38FDEAF2D9801AE01FF9092
S1132BA00F911F91CF91DF9100DD3FCEFA01DC013F
S1132BB0AA0FBB1F9B01AC01BF5728F42227332760
S1132BC0442750781FC0B75188F4AB2F0024469592
S1132BD037952795011CA395D2F3002069F0220FA5
S1132BE0331F441FB395DAF30DD0CDCC613071059A
S1132BF0A0E88A07B94630F49B01AC016627772721
S1132C0088279078309621F0208331834283538340
S1132C1008959F3F31F0915020F4879577956795FB
S1132C20B795880F911D9695879597F90895A29F5A
S1132C30B001B39FC001A39F700D811D1124911D8C
S1132C40B29F700D811D1124911D0895CF93DF93C0
S1132C50CDB7DEB7FE01369661917191AF018091D7
S1132C60310A9091320A03D0DF91CF9108952F92C7
S1132C703F924F925F926F927F928F929F92AF9208
S1132C80BF92CF92DF92EF92FF920F931F93CF9355
S1132C90DF93CDB7DEB72C970FB6F894DEBF0FBE27
S1132CA0CDBF7C016B018A01FC01178216828381EE
S1132CB081FFB0C1CE0101964C01F7019381F60169
S1132CC093FD859193FF81916F01882309F49EC13F
S1132CD0853239F493FD859193FF81916F0185329B
S1132CE021F4B70190E0C7D1E8CF512C312C20E07A
S1132CF02032A0F48B3269F030F4803259F0833200
S1132D0069F420612CC08D3239F0803339F42160AC
S1132D1026C02260246023C0286021C027FD27C06C
S1132D2030ED380F3A3078F426FF06C0FAE05F9EA3
S1132D30300D1124532E13C08AE0389E300D112417
S1132D40332E20620CC08E3221F426FD5FC1206434
S1132D5006C08C3611F4206802C0883641F4F601AE
S1132D6093FD859193FF81916F018111C1CF982FBC
S1132D709F7D9554933028F40C5F1F4FFFE3F98334
S1132D800DC0833631F0833771F0833509F057C0B5
S1132D9021C0F801808189830E5F1F4F442443942E
S1132DA0512C540114C03801F2E06F0E711CF8016B
S1132DB0A080B18026FF03C0652D70E002C06FEFD4
S1132DC07FEFC5012C874CD12C0183012C852F77F3
S1132DD0222E16C03801F2E06F0E711CF801A0809B
S1132DE0B18026FF03C0652D70E002C06FEF7FEF56
S1132DF0C5012C872AD12C012C852068222E830121
S1132E0023FC19C0832D90E048165906A0F4B7019D
S1132E1080E290E030D13A94F5CFF50127FC85911A
S1132E2027FE81915F01B70190E025D131103A94DA
S1132E30F1E04F1A51084114510479F7DEC0843689
S1132E4011F0893631F5F80127FF07C060817181DF
S1132E50828193810C5F1F4F08C060817181882734
S1132E6077FD8095982F0E5F1F4F2F76B22E97FF18
S1132E7009C090958095709561957F4F8F4F9F4FB6
S1132E802068B22E2AE030E0A40127D1A82EA81889
S1132E9043C0853729F42F7EB22E2AE030E025C0C6
S1132EA0F22FF97FBF2E8F36C1F018F4883579F0F0
S1132EB0ADC0803719F0883721F0A8C02F2F2061CA
S1132EC0B22EB4FE0DC08B2D8460B82E09C024FF31
S1132ED00AC09F2F9660B92E06C028E030E005C0D6
S1132EE020E130E002C020E132E0F801B7FE07C083
S1132EF060817181828193810C5F1F4F06C0608164
S1132F00718180E090E00E5F1F4FA401E6D0A82EEF
S1132F10A818FB2DFF77BF2EB6FE0BC02B2D2E7FDE
S1132F20A51450F4B4FE0AC0B2FC08C02B2D2E7EAA
S1132F3005C07A2C2B2D03C07A2C01C0752C24FFDC
S1132F400DC0FE01EA0DF11D8081803311F4297E4C
S1132F5009C022FF06C07394739404C0822F86783C
S1132F6009F0739423FD12C020FF06C05A2C731479
S1132F7018F4530C5718732C731460F4B70180E2DF
S1132F8090E02C8778D073942C85F6CF731410F4CA
S1132F90371801C0312C24FF11C0B70180E390E041
S1132FA02C8769D02C8522FF16C021FF03C088E539
S1132FB090E002C088E790E0B7010CC0822F8678C9
S1132FC051F021FD02C080E201C08BE227FD8DE2B9
S1132FD0B70190E050D0A51430F4B70180E390E03D
S1132FE04AD05A94F8CFAA94F401EA0DF11D8081D5
S1132FF0B70190E040D0A110F6CF332009F45DCEA4
S1133000B70180E290E037D03A94F7CFF701868198
S1133010978102C08FEF9FEF2C960FB6F894DEBF16
S11330200FBECDBFDF91CF911F910F91FF90EF9015
S1133030DF90CF90BF90AF909F908F907F906F90D4
S11330405F904F903F902F900895FC010590615040
S113305070400110D8F7809590958E0F9F1F0895AA
S1133060FC016150704001900110D8F78095909553
S11330708E0F9F1F08950F931F93CF93DF93182FE5
S1133080092FEB018B8181FD03C08FEF9FEF20C0DF
S113309082FF10C04E815F812C813D81421753070E
S11330A07CF4E881F9819F012F5F3F4F39832883A6
S11330B0108306C0E885F985812F1995892B29F796
S11330C02E813F812F5F3F4F3F832E83812F902F8F
S11330D0DF91CF911F910F910895FA01AA2728300B
S11330E051F1203181F1E8946F936E7F6E5F7F4FD1
S11330F08F4F9F4FAF4FB1E03ED0B4E03CD0670F4D
S1133100781F891F9A1FA11D680F791F8A1F911D9F
S1133110A11D6A0F711D811D911DA11D20D009F4EF
S113312068943F912AE0269F11243019305D319331
S1133130DEF6CF010895462F4770405D4193B3E01A
S11331400FD0C9F7F6CF462F4F70405D4A3318F0C1
S1133150495D31FD4052419302D0A9F7EACFB4E072
S1133160A6959795879577956795BA95C9F700972A
S11331706105710508959B01AC010A2E06945795CB
S1133180479537952795BA95C9F7620F731F841F22
S10D3190951FA01D0895F894FFCFC9
S113319A1F0001002000000022000100210000009D
S11331AA1200000001000100120021001200210097
S11331BA1F00200022001F00200022001B001C0008
S11331CA19001D001A0014001E001600150018002C
S10931DA780025642000CA
S9030000FC
